:020000040000FA
:060000000A128A11FC2F18
:10000C000030831203132005A80000302105A9003D
:10001C0080302205AA007F302305AB002B082A0470
:10002C0029042804031D1B281C2824280030A300A5
:10003C000030A2000030A1000030A00000302405E8
:10004C00A80000302505A90080302605AA007F30C5
:10005C002705AB002B082A0429042804031D372884
:10006C00382840280030A7000030A6000030A5003A
:10007C000030A400A31F4328442868280030A8009F
:10008C000030A9000030AA008030AB002008A80284
:10009C002108031C210F53285428A9022208031CF1
:1000AC00220F59285A28AA022308031C230F5F2861
:1000BC006028AB022B08A3002A08A2002908A10083
:1000CC002808A000A71F6B286C2890280030A800D7
:1000DC000030A9000030AA008030AB002408A80230
:1000EC002508031C250F7B287C28A9022608031C45
:1000FC00260F81288228AA022708031C270F87288D
:10010C008828AB022B08A7002A08A6002908A500FE
:10011C002808A4008030A3068030A70627082302F5
:10012C00031DA22826082202031DA228250821024D
:10013C00031DA228240820020318A528A628A828F5
:10014C000310A92803140800F80078080319AF2835
:10015C00B028C428F31FB328B428C4287009FA00A7
:10016C007109FB007209FC007309FD00FA0A0319FE
:10017C00FB0A0319FC0A0319FD0ACC287308FD00BD
:10018C007208FC007108FB007008FA007308720416
:10019C0071047004031DD328D428DD280030F3002B
:1001AC000030F2000030F1000030F000632996308E
:1001BC00F4007408F900EF280130F4007408F90712
:1001CC0001300310FD0CFC0CFB0CFA0CFF3E031D64
:1001DC00E728FE307D05031DF428F528E2281129B7
:1001EC000130F4007408F9070130FA0700300318E5
:1001FC000130FB07003003180130FC0700300318F6
:10020C000130FD0701300310FD0CFC0CFB0CFA0C4B
:10021C00FF3E031D0929FF307D05031D16291729F3
:10022C00F62823290130F9020130F4000310FA0DED
:10023C00FB0DFC0DFD0DF40B1C29FC1B262927299D
:10024C002D290230790203182C292D291829791807
:10025C00302931293929FF30FA05FF30FB057F3071
:10026C00FC05FF30FD050310F90C7908F400F501CD
:10027C00F601F70118300310F40DF50DF60DF70D1E
:10028C00FF3E031D41297408FA047508FB04760827
:10029C00FC047708FD0478080319552956295B29B5
:1002AC00F31F59295A295B29FD177D08F3007C0897
:1002BC00F2007B08F1007A08F000080083160313A3
:1002CC0006100130831203139F0080308316031332
:1002DC009F00831203139E01831603139E01AC012E
:1002EC00AD012C080A128A1519270A128A117108F5
:1002FC0083160313A7007008A6000A30F200003022
:10030C00F3002708F1002608F0000A128A15382796
:10031C000A128A11700883120313DF007108E000BF
:10032C0009300310E00CDF0CFF3E031D97295F081A
:10033C0083160313A400831203136008831603139C
:10034C00A5002508F1002408F0000530F20000306B
:10035C00F3000A128A1538270A128A1171088316BB
:10036C000313A9007008A8002808F0002908F10060
:10037C00F201F30100300A128A11AA200A128A1122
:10038C00730883120313A7007208A6007108A50056
:10039C007008A4004130A300A030A2000030A100DE
:1003AC000030A0000A128A119B240A128A118312AF
:1003BC0003132308C1002208C0002108BF00200835
:1003CC00BE004130BD002030BC000030BB0000300E
:1003DC00BA000A128A11BE220A128A11831203135E
:1003EC003D0883160313A300831203133C088316E2
:1003FC000313A200831203133B0883160313A100FB
:10040C00831203133A0883160313A00023088312E4
:10041C000313A70083160313220883120313A600E9
:10042C0083160313210883120313A50083160313E9
:10043C00200883120313A4004130A3002030A20033
:10044C000030A1000030A0000A128A119B240A126D
:10045C008A11831203132308C1002208C00021084B
:10046C00BF002008BE004230BD00C830BC000030C8
:10047C00BB000030BA000A128A11BE220A128A117D
:10048C00831203133D08D7003C08D6003B08D50067
:10049C003A08D4000A128A1584270A128A11831288
:1004AC000313550883160313AB008312031354086C
:1004BC0083160313AA002D0883120313DF00E00137
:1004CC006008831603132B02031D722A8312031375
:1004DC005F08831603132A02031C752A762A7A2ACC
:1004EC008312031306147D2A83120313061083163A
:1004FC0003132D0883120313DF00E001E101E20175
:10050C006208F3006108F2006008F1005F08F00077
:10051C0001300A128A11AA200A128A117308831256
:10052C000313A3007208A2007108A1007008A000B8
:10053C004130A700A030A6000030A5000030A40078
:10054C000A128A1106200A128A11031CAE2AAF2A3B
:10055C00B22A83160313AD01013083120313DF009B
:10056C005F0883160313AD0777290A128A11002836
:10057C008312031341088039C2004208CB004108A2
:10058C00C2004207C3004308D200C01FCE2ACF2AA4
:10059C00D02A521452080319D42AD52AE52A520A11
:1005AC00031DD92ADA2AE22A0030C1000030C0002B
:1005BC000030BF000030BE00C017C101ED2A003072
:1005CC00C1000030C0000030BF000030BE003D084C
:1005DC008039C2004208CB063D08C2004207C30066
:1005EC004308D300BC1FFB2AFC2AFD2A53145308D2
:1005FC000319012B022B122B530A031D062B072B5D
:10060C000F2B0030BD000030BC000030BB000030B0
:10061C00BA00BC17BD011A2B0030BD000030BC0065
:10062C000030BB000030BA003D083C043B043A04E7
:10063C00031D212B222B3B2B0030C1000030C000AE
:10064C000030BF000030BE008030C0047F30C104D9
:10065C004B08C2004208C1044108BD004008BC0060
:10066C003F08BB003E08BA009A2C5208031D3F2BD2
:10067C00402B492B0030BD000030BC000030BB00CB
:10068C000030BA009A2C5208C200C3014308C500BE
:10069C0053084202C400031CC50344087F3ECC002F
:1006AC0045080318013E003ECD004108CA00400831
:1006BC00C9003F08C8003E08C7000030C100003028
:1006CC00C0000030BF000030BE000030D100003050
:1006DC00D0000030CF000030CE00D301BF2B530828
:1006EC000319792B7A2B9A2B0130C2000310C70DFA
:1006FC00C80DC90DCA0DC20B7C2B0130C2000310F2
:10070C00BE0DBF0DC00DC10DC20B852BD11F8F2B84
:10071C00902B912B3E140130C2000310CE0DCF0D47
:10072C00D00DD10DC20B932B3D084A02031DA82BF3
:10073C003C084902031DA82B3B084802031DA82BAB
:10074C003A084702031CAB2BAC2BBB2B51173A08B6
:10075C00C7023B08031C3B0FC8023C08031C3C0FA0
:10076C00C9023D08031C3D0FCA020130C2004208F9
:10077C00D3071A305302031CC42BC52B752B4A0804
:10078C004904480447040319CC2BCD2BEC2B4E14F5
:10079C00EC2B0130C2000310BE0DBF0DC00DC10DFE
:1007AC00C20BD12BD11FDB2BDC2BDD2B3E140130EC
:1007BC00C2000310CE0DCF0DD00DD10DC20BDF2B0F
:1007CC00FF30CC070318CD0AFF30CD07C01FEF2B2D
:1007DC00F02BCF2BD301D11FF42BF52B112CFF3089
:1007EC004E05C200FF304F05C300FF305005C4005A
:1007FC007F305105C50045084404430442040319E5
:10080C00082C092C0C2CD301D30A112C3E1C0F2CB8
:10081C00102C112C092C53080319152C162C472CB1
:10082C000130BE07003003180130BF070030031839
:10083C000130C007003003180130C107411C272CC0
:10084C00282C472C3E08C2003F08C3004008C400B7
:10085C004108C5000130C600450DC50CC40CC30CC5
:10086C00C20CC60B322C4508C1004408C00043081A
:10087C00BF004208BE000130CC070318CD0A00307F
:10088C00CD074D08803AFF0080307F02031D502CAD
:10089C00FF304C02031C532C542C622CFF3083125F
:1008AC000313CC000030CD000030C1000030C0007C
:1008BC000030BF000030BE00831203134D08803A95
:1008CC00FF0080307F02031D6D2C01304C02031899
:1008DC00702C712C7E2C83120313CC01CD010030B3
:1008EC00C1000030C0000030BF000030BE00CB01A2
:1008FC00831203134C08C2004208D200521C872CEE
:10090C00882C8A2CC0178E2C7F30C2004208C00560
:10091C005208C2000310420CC3004308C1004B082C
:10092C00C2004208C104322B0800831203132308AF
:10093C008039A8002808AD002308A8002807A900C2
:10094C002908B300A21FAB2CAC2CAD2C33143308EC
:10095C000319B12CB22CC12C330A031DB62CB72CA5
:10096C00BF2C0030A3000030A2000030A1000030EA
:10097C00A000A217C92C0030A3000030A200003048
:10098C00A1000030A00027088039A8002808AD0677
:10099C002708A8002807A9002908B200A61FD72CF1
:1009AC00D82CD92C321432080319DD2CDE2CED2C6A
:1009BC00320A031DE22CE32CEB2C0030A700003094
:1009CC00A6000030A5000030A400A617F52C0030BE
:1009DC00A7000030A6000030A5000030A4003208AB
:1009EC000319F92CFA2CFF2C3308031DFE2CFF2CB9
:1009FC00082D0030A3000030A2000030A100003010
:100A0C00A000FB2F2008A8002808F00026080A12D6
:100A1C008A155D270A128A11710883120313B90013
:100A2C007008B8003808A800A901AA01AB012B086E
:100A3C00B1002A08B0002908AF002808AE00390818
:100A4C00A800A901AA01AB012B08B7002A08B6001F
:100A5C002908B5002808B4002108A8002808F000CF
:100A6C0025080A128A155D270A128A117108831249
:100A7C000313B9007008B8003808A800A901AA012E
:100A8C00AB012808AE07290803110318013E03190E
:100A9C00502DAF072A0803110318013E0319572DD7
:100AAC00B0072B0803110318013E03195E2DB10783
:100ABC003908A800A901AA01AB012808B407290824
:100ACC0003110318013E03196C2DB5072A080311F5
:100ADC000318013E0319732DB6072B0803110318D5
:100AEC00013E03197A2DB7072208A8002808F00048
:100AFC0024080A128A155D270A128A1171088312BA
:100B0C000313B9007008B8003808A800A901AA019D
:100B1C00AB012808AE07290803110318013E03197D
:100B2C00982DAF072A0803110318013E03199F2DB6
:100B3C00B0072B0803110318013E0319A62DB107AA
:100B4C003908A800A901AA01AB012808B407290893
:100B5C0003110318013E0319B42DB5072A0803111C
:100B6C000318013E0319BB2DB6072B0803110318FC
:100B7C00013E0319C22DB7070830A8000310AE0DB3
:100B8C00AF0DB00DB10DA80BC42D2108A80028087D
:100B9C00F00024080A128A155D270A128A117108BE
:100BAC0083120313B9007008B8003808A80039087C
:100BBC00A900AA01AB012808AE07290803110318E4
:100BCC00013E0319EA2DAF072A0803110318013E51
:100BDC000319F12DB0072B0803110318013E03195B
:100BEC00F82DB1072008A8002808F00025080A12E3
:100BFC008A155D270A128A11710883120313B90032
:100C0C007008B8003808A8003908A900AA01AB017F
:100C1C002808AE07290803110318013E0319172EE3
:100C2C00AF072A0803110318013E03191E2EB00743
:100C3C002B0803110318013E0319252EB1070830A8
:100C4C00A8000310AE0DAF0DB00DB10DA80B272EE3
:100C5C002008A8002808F00024080A128A155D272D
:100C6C000A128A11710883120313B9007008B800B4
:100C7C003808A8003908A900AA01AB012808AE075A
:100C8C00290803110318013E03194D2EAF072A083A
:100C9C0003110318013E0319542EB0072B0803113E
:100CAC000318013E03195B2EB1072108A800280880
:100CBC00F00026080A128A155D270A128A1171089B
:100CCC0083120313B9007008B8003808A80039085B
:100CDC00A900AA01AB012808B407290803110318BD
:100CEC00013E03197A2EB5072A0803110318013E99
:100CFC000319812EB6072B0803110318013E0319A3
:100D0C00882EB7072208A8002808F00025080A1228
:100D1C008A155D270A128A11710883120313B90010
:100D2C007008B8003808A8003908A900AA01AB015E
:100D3C002808B407290803110318013E0319A72E2C
:100D4C00B5072A0803110318013E0319AE2EB60786
:100D5C002B0803110318013E0319B52EB7072208FF
:100D6C00A8002808F00026080A128A155D270A1226
:100D7C008A11710883120313B9007008B80038087F
:100D8C00A8003908A900AA01AB0108300310A80D6E
:100D9C00A90DAA0DAB0DFF3E031DCC2E2808B407E0
:100DAC00290803110318013E0319DD2EB5072A0883
:100DBC0003110318013E0319E42EB6072B08031187
:100DCC000318013E0319EB2EB7072E08A8002F08B5
:100DDC00A9003008AA003108AB0018300310AB0C86
:100DEC00AA0CA90CA80CFF3E031DF42E2808B4076E
:100DFC00290803110318013E0319052FB5072A080A
:100E0C0003110318013E03190C2FB6072B0803110D
:100E1C000318013E0319132FB7070830A80003105D
:100E2C00AE0DAF0DB00DB10DA80B152F3308320759
:100E3C00A800A901A90D2808823EB80029080318AA
:100E4C00013EFF3EB900472F0130A8000310B40D3E
:100E5C00B50DB60DB70DA80B2C2FB11F362F372F94
:100E6C00382F34140130A8000310AE0DAF0DB00DA7
:100E7C00B10DA80B3A2FFF30B8070318B90AFF3091
:100E8C00B907B61F4A2F4B2F2A2FB201B11F4F2F74
:100E9C00502F6C2FFF302E05A800FF302F05A90016
:100EAC00FF303005AA007F303105AB002B082A0437
:100EBC00290428040319632F642F672FB201B20A87
:100ECC006C2F341C6A2F6B2F6C2F642F3208031974
:100EDC00702F712FA22F0130B4070030031801308E
:100EEC00B507003003180130B60700300318013085
:100EFC00B707371C822F832FA22F3408A800350880
:100F0C00A9003608AA003708AB000130AC002B0D45
:100F1C00AB0CAA0CA90CA80CAC0B8D2F2B08B70092
:100F2C002A08B6002908B5002808B4000130B80713
:100F3C000318B90A0030B9073908803AFF0080302D
:100F4C007F02031DAB2FFF303802031CAE2FAF2FD7
:100F5C00BA2F7F3083120313B7008030B6000030F5
:100F6C00B5000030B400EF2F831203133908803A18
:100F7C00FF0080307F02031DC52F0130380203189B
:100F8C00C82FC92FD52F003083120313B7000030A0
:100F9C00B6000030B5000030B400AD01EF2F831265
:100FAC0003133808A8002808B300FF30B405FF303D
:100FBC00B5057F30B6050030B705331CE62FE72F9B
:100FCC00E82FB6173308A8000310280CA90029082D
:100FDC00B7002D08A8002808B7043708A300360866
:100FEC00A2003508A1003408A000080083010A12F1
:040FFC008A116429C9
:101E3200F3007308F200F20DF20DF20D8312031398
:101E42001F087206C73972069F002130F200F20B9A
:101E5200282F831203131F151F19302F312F2D2FF7
:101E62001E08F100831603131E08F0000800F40197
:101E7200F501701C3D2F3E2F442F7208F407031802
:101E8200F50A7308F50701300310F20DF30DFF3E5A
:101E9200031D452F01300310F10CF00CFF3E031D12
:101EA2004C2F70087104031D572F582F3A2F7508B5
:101EB200F1007408F0000800F800F401F501700860
:101EC200F200F3017208F6007308F700781C6A2F1B
:101ED2006B2F712F7608F4070318F50A7708F507B8
:101EE20001300310F60DF70DFF3E031D722F031094
:101EF200F80C7808031D7E2F7F2F672F7508F100DD
:101F02007408F0000800031083120313560D570DD6
:101F1200D8005808DE005E08031D902F912F9A2FDB
:101F22000030D7000030D6000030D5000030D40099
:101F3200FF2F5408D8005508D9005608DA00570870
:101F4200DB001F300310DB0CDA0CD90CD80CFF3E7F
:101F5200031DA32F5808DC005C08DD00D617FF30F4
:101F6200D405FF30D505FF30D6050030D7059630B1
:101F7200DE02DE1FBD2FBE2FD82F5E08803A973EAD
:101F82000318C42FC52FC62F912F01300310D70C71
:101F9200D60CD50CD40CFF3E031DC72F0130D80040
:101FA2005808DE07031DD62FD72FC62FEF2F20305C
:101FB2005E02031CDD2FDE2FEA2F912F0130D800A5
:101FC2000310D40DD50DD60DD70DD80BE12F01304E
:101FD200DE025E08031DEE2FEF2FDF2F5D080319CF
:101FE200F32FF42FFF2FD409D509D609D709D40A24
:0E1FF2000319D50A0319D60A0319D70A0800E5
:02400E00FA3F77
:00000001FF
