:020000040000FA
:060000000A128A11EE2F26
:100E6C007E088A007F0882000A128A1136270A122D
:100E7C008A118000840A04087D0603190034FF0AD5
:100E8C000319FE0A3A2FF20072088312031386002C
:100E9C00071487141A30F100F830F000F00B542FBF
:100EAC00F10B542F00008312031387100800F2007B
:100EBC007208831203138600071087141A30F1008E
:100ECC00F830F000F00B682FF10B682F0000831244
:100EDC00031387100800483465346C346C346F3459
:100EEC00203457346F3472346C346434213400340D
:100EFC000034003400340034003400340034383012
:100F0C000A128A115D270A128A110C300A128A11F0
:100F1C005D270A128A1101300A128A115D270A1202
:100F2C008A1106300A128A115D270A128A11803042
:100F3C000A128A115D270A128A11080083160313FC
:100F4C008601870183120313860187010A128A1115
:100F5C0085270A128A11F6017608203E8400831335
:100F6C000008031DBA2FBB2FCF2FF6010630F5005A
:100F7C001330F400AD30F300F30BC22FF40BC22F7F
:100F8C00F50BC22FC92F01300A128A115D270A12E4
:100F9C008A117608203E8400831300080A128A11F5
:100FAC0049270A128A110130F3007308F607023040
:100FBC00F5000430F400BA30F300F30BE32FF40B1C
:100FCC00E32FF50BE32F0000B22F0A128A11002831
:100FDC0083133430FD000730FE007130FF002030E9
:100FEC0084000A128A113A270A128A1183010A1202
:040FFC008A11A42F83
:02400E00FA3F77
:00000001FF
