:020000040000FA
:060000000A128A11FC2F18
:100C3A0083120313A101FC1F232E242E2B2EFB0942
:100C4A00FC09FB0A0319FC0AA101A10AFA1F2E2EAC
:100C5A002F2E342EF909FA09F90A0319FA0A790822
:100C6A007A040319392E3A2E692EA001A00A482EB9
:100C7A0001300310F90DFA0DFF3E031D3E2E01301F
:100C8A00FD007D08A007FA1F4B2E4C2E3D2E7A0838
:100C9A007C02031D522E79087B02031C552E562E08
:100CAA005C2E7908FB027A08031CFC03FC02013063
:100CBA000310FA0CF90CFF3E031D5D2E0130A00251
:100CCA00031D682E692E4C2E210803196D2E6E2ED7
:100CDA00732EFB09FC09FB0A0319FC0A7C08FA00BB
:100CEA007B08F9000800F601F11F7C2E7D2E842E68
:100CFA00F009F109F00A0319F10AF601F60AF31FDD
:100D0A00872E882E912EF209F309F20A0319F30AA3
:100D1A000130F4007408F606F701F801700871044E
:100D2A000319982E992ED02EF501F50AA72E013017
:100D3A000310F00DF10DFF3E031D9D2E0130F4004E
:100D4A007408F507F11FAA2EAB2E9C2E0130031052
:100D5A00F70DF80DFF3E031DAC2E71087302031D3B
:100D6A00B82E70087202031CBB2EBC2EC32E70084C
:100D7A00F2027108031CF303F30277140130031023
:100D8A00F10CF00CFF3E031DC42E0130F502031DC9
:100D9A00CF2ED02EAB2E76080319D42ED52EDA2ECE
:100DAA00F709F809F70A0319F80A7808F100770829
:100DBA00F0000800831603138601071087108312B8
:100DCA000313860187100710A801A701A601643042
:100DDA002802031CF12EF22EF32EA8010A30F90084
:100DEA000030FA002808A200A3012208FB00230809
:100DFA00FC000A128A111D260A128A117908831226
:100E0A000313A4002408A50025080A128A116D27D5
:100E1A000A128A118312031387141A3083120313D6
:100E2A00A300F730A200A20B182FA30B182F1D2F17
:100E3A008312031387100A30F9000030FA000A30CF
:100E4A00F0000030F1002808A200A3012208F200F5
:100E5A002308F3000A128A1178260A128A117108E5
:100E6A00FC007008FB000A128A111D260A128A1158
:100E7A00790883120313A4002408A60026080A127C
:100E8A008A116D270A128A118312031307141A3062
:100E9A0083120313A300F730A200A20B522FA30B55
:100EAA00522F572F83120313071064302706031D8E
:100EBA005F2F602F652F0130A2002208A807A70123
:100ECA000130A2002208A707EC2E0A128A11002874
:100EDA00F200D32F831203130614861406158615FF
:100EEA00061686160613FB2F8312031306108614A2
:100EFA0006158611061286120613FB2F8312031398
:100F0A000614861406118615061686120617FB2F76
:100F1A008312031306148614061586150612861202
:100F2A000617FB2F83120313061086140615861163
:100F3A00061286160617FB2F831203130614861051
:100F4A0006158615061286160617FB2F831203133B
:100F5A000614861006158615061686160617FB2F22
:100F6A0083120313061486140615861106128612B6
:100F7A000613FB2F8312031306148614061586150F
:100F8A00061686160617FB2F8312031306148614F9
:100F9A0006158615061286160617FB2F7208F0002C
:100FAA00F1017108003A0319DB2FFB2F7008003A90
:100FBA0003196F2F013A0319792F033A0319832F63
:100FCA00013A03198D2F073A0319972F013A03198A
:100FDA00A12F033A0319AB2F013A0319B52F0F3A80
:100FEA000319BF2F013A0319C92FFB2F08008301E8
:060FFA000A128A11DF2E2D
:02400E00FA3F77
:00000001FF
