:020000040000FA
:060000000A128A110C280F
:10000800FE00030EF6000A08F7000A128A110929F1
:100018000A128A110F280A128A11B9210A128A11A2
:10002800FC000A128A11BA210A128A11FD00B701CE
:10003800FA01FB0183010A128A112228831603138D
:10004800061083120313061001309F0080308316B8
:1000580003139F00831203139E01831603139E014B
:1000680005308100E0308312031381008B160B11D9
:100078008B170B1700300A128A1195210A128A1160
:10008800831203132108B4002008B3000A30A20029
:100098000030A3003408A1003308A0000A128A1116
:1000A80049210A128A11831203132008AE0021087D
:1000B800AF0009300310AF0CAE0CFF3E031D5E28E5
:1000C8002E08B1002F08B2003208A1003108A000A4
:1000D8000530A2000030A3000A128A1149210A1231
:1000E8008A11831203132108B6002008B5007D0881
:1000F800A1007C08A0003608A3003508A2000A1257
:100108008A1149210A128A11831203132108B200A5
:100118002008B1006430A6000030A7003208A10012
:100128003108A0000A30A2000030A3000A128A1188
:1001380049210A128A11831203132108A9002008F1
:10014800A8000A128A11C3200A128A118312031303
:100158002708F9002608F800023083120313B000BC
:100168000430AF00B930AE00AE0BB828AF0BB828DA
:10017800B00BB828BF283E280A128A110C2883120F
:100188000313AB01AC01260827040319CC28CD289A
:100198000429AD01AD0ADB2801300310A60DA70D17
:1001A800FF3E031DD1280130AA002A08AD07A71F6A
:1001B800DE28DF28D02801300310AB0DAC0DFF3E40
:1001C800031DE02827082902031DEC282608280219
:1001D800031CEF28F028F7282608A8022708031C84
:1001E800A903A9022B1401300310A70CA60CFF3E8B
:1001F800031DF8280130AD02031D03290429DF2857
:100208002C08A7002B08A60008000B1D0C290D2997
:1002180042297B087902031D13297A087802031CF6
:10022800162917291B298312031306141E29831262
:10023800031306107D08F1007C08F0000A30F20074
:100248000030F3000A128A1170210A128A1171080B
:100258007B02031D312970087A02031C34293529D1
:100268003729FA01FB010130FA070318FB0A0030AD
:10027800FB07E0308312031381000B1177088A0013
:10028800760E8300FE0E7E0E090083120313A4016E
:10029800A501201C5029512957292208A407031811
:1002A800A50A2308A50701300310A20DA30DFF3EE0
:1002B800031D582901300310A10CA00CFF3E031D9B
:1002C8005F2920082104031D6A296B294D29250867
:1002D800A1002408A0000800F401F501701C75298C
:1002E80076297C297208F4070318F50A7308F507BC
:1002F80001300310F20DF30DFF3E031D7D2901307F
:100308000310F10CF00CFF3E031D842970087104E2
:10031800031D8F29902972297508F1007408F000CF
:10032800080083120313A3002308A200A20DA20D44
:10033800A20D1F082206C73922069F00203083120B
:100348000313A200A20BA6290000831203131F1592
:100358001F19AF29B029AC291E08A1008316031361
:0E0368001E0883120313A000080002340034A4
:02400E00FA3F77
:00000001FF
