:020000040000FA
:060000000A128A11EE2F26
:100D6C000134033407340F341F343F34013400345E
:100D7C00003400347E088A007F0882000A128A112F
:100D8C00C0260A128A118000840A04087D06031901
:100D9C000034FF0A0319FE0AC42E831603138601BE
:100DAC008817831203138601881FDD2EDE2EDA2EA0
:100DBC00881BE12EE22EDE2E0630A7000030A800A4
:100DCC000A128A114C270A128A1183120313210862
:100DDC00AA002008A9000A128A1193270A128A1164
:100DEC00831203132708AD002D08AE002E082F3EEA
:100DFC008400831300088600DA2E0A128A11002858
:100E0C000030FC000030FB000030FA000030F9002C
:100E1C00701C112F122F292F7408F9077508031154
:100E2C000318013E03191B2FFA0776080311031848
:100E3C00013E0319222FFB07770803110318013E0B
:100E4C000319292FFC070130F8000310F40DF50DE0
:100E5C00F60DF70DF80B2B2F01300310F30CF20CE1
:100E6C00F10CF00CFF3E031D332F73087204710458
:100E7C007004031D422F432F0E2F7C08F3007B08B8
:100E8C00F2007A08F1007908F000080083120313CD
:100E9C003808F3003708F2003608F1003508F00086
:100EAC004130F700C630F6004E30F5006D30F400DE
:100EBC000A128A1106270A128A1173088312031365
:100ECC00B8007208B7007108B6007008B500393068
:100EDC00B507303003183130B60700300318013035
:100EEC00B707003003180130B8073508A2003608E0
:100EFC00A3003708A4003808A5001030A600250D63
:100F0C00A50CA40CA30CA20CA60B852FFF3022055C
:100F1C00A0007F302305A100080083120313AC014D
:100F2C00AA1F992F9A2FA12FA909AA09A90A031957
:100F3C00AA0AAC01AC0AA81FA42FA52FAA2FA70997
:100F4C00A809A70A0319A80A270828040319AF2F10
:100F5C00B02FDF2FAB01AB0ABE2F01300310A70D52
:100F6C00A80DFF3E031DB42F0130FD007D08AB071B
:100F7C00A81FC12FC22FB32F28082A02031DC82F68
:100F8C0027082902031CCB2FCC2FD22F2708A9020C
:100F9C002808031CAA03AA0201300310A80CA70CF2
:100FAC00FF3E031DD32F0130AB02031DDE2FDF2FBD
:100FBC00C22F2C080319E32FE42FE92FA909AA0942
:100FCC00A90A0319AA0A2A08A8002908A7000800D8
:100FDC0083133930FD000630FE00B630FF002F3091
:100FEC0084000A128A11C4260A128A1183010A1279
:040FFC008A11D32E55
:02400E00FA3F77
:00000001FF
