:020000040000FA
:060000000A128A11FC2F18
:100B5A000130831203139F008030831603139F0012
:100B6A00831203139E01831603139E010800F400E7
:100B7A007408F200F20DF20DF20D831203131F082E
:100B8A007206C73972069F000D30F300FB30F2007F
:100B9A00F20BCD2DF30BCD2DD22D831203131F157E
:100BAA001F19D82DD92DD52D1E08F1008316031330
:100BBA001E08F000080083120313A101FC1FE62D92
:100BCA00E72DEE2DFB09FC09FB0A0319FC0AA1011A
:100BDA00A10AFA1FF12DF22DF72DF909FA09F90ADE
:100BEA000319FA0A79087A040319FC2DFD2D2C2E13
:100BFA00A001A00A0B2E01300310F90DFA0DFF3ED9
:100C0A00031D012E0130FD007D08A007FA1F0E2EDC
:100C1A000F2E002E7A087C02031D152E79087B02FE
:100C2A00031C182E192E1F2E7908FB027A08031CA2
:100C3A00FC03FC0201300310FA0CF90CFF3E031D01
:100C4A00202E0130A002031D2B2E2C2E0F2E210840
:100C5A000319302E312E362EFB09FC09FB0A031923
:100C6A00FC0A7C08FA007B08F9000800F601F11F6B
:100C7A003F2E402E472EF009F109F00A0319F10A16
:100C8A00F601F60AF31F4A2E4B2E542EF209F309E7
:100C9A00F20A0319F30A0130F4007408F606F701A0
:100CAA00F8017008710403195B2E5C2E932EF5016E
:100CBA00F50A6A2E01300310F00DF10DFF3E031DF7
:100CCA00602E0130F4007408F507F11F6D2E6E2EA8
:100CDA005F2E01300310F70DF80DFF3E031D6F2E36
:100CEA0071087302031D7B2E70087202031C7E2E8C
:100CFA007F2E862E7008F2027108031CF303F3029A
:100D0A00771401300310F10CF00CFF3E031D872EFF
:100D1A000130F502031D922E932E6E2E76080319CA
:100D2A00972E982E9D2EF709F809F70A0319F80A43
:100D3A007808F1007708F0000800F200082F831203
:100D4A000313061486140615861506168616061348
:100D5A00302F831203130610861406158611061205
:100D6A0086120613302F83120313061486140611F3
:100D7A008615061686120617302F831203130614D9
:100D8A00861406158615061286120617302F831248
:100D9A000313061086140615861106128616061700
:100DAA00302F8312031306148610061586150612B1
:100DBA0086160617302F831203130614861006159B
:100DCA008615061686160617302F83120313061485
:100DDA00861406158611061286120613302F831200
:100DEA0003130614861406158615061686160617A4
:100DFA00302F83120313061486140615861506125D
:100E0A0086160617302F7208F000F1017108003AB1
:100E1A000319102F302F7008003A0319A42E013A33
:100E2A000319AE2E033A0319B82E013A0319C22E3A
:100E3A00073A0319CC2E013A0319D62E033A03199D
:100E4A00E02E013A0319EA2E0F3A0319F42E013A59
:100E5A000319FE2E302F080083160313051486018A
:100E6A00071087100A128A11AD250A128A118312F5
:100E7A000313860187100710A70100300A128A118E
:100E8A00BC250A128A11710883120313A90070087B
:100E9A00A800003029026730031928020318562FC8
:100EAA00572F592FA701912F013029020130031919
:100EBA0028020318612F622F672F1930A200220817
:100ECA00A700912F023029020130031928020318C2
:100EDA006F2F702F752F3230A2002208A700912F92
:100EEA000330290201300319280203187D2F7E2FAF
:100EFA00832F4B30A2002208A700912F0430290229
:100F0A0001300319280203188B2F8C2F912F63307D
:100F1A00A2002208A700912F0A30F9000030FA0037
:100F2A002708A200A3012208FB002308FC000A12DA
:100F3A008A11E0250A128A11790883120313A40080
:100F4A002408A50025080A128A11A2260A128A1163
:100F5A008312031387141A3083120313A300F73082
:100F6A00A200A20BB62FA30BB62FBB2F831203131B
:100F7A0087100A30F9000030FA000A30F000003019
:100F8A00F1002708A200A3012208F2002308F300B7
:100F9A000A128A113B260A128A117108FC0070088B
:100FAA00FB000A128A11E0250A128A1179088312B3
:100FBA000313A4002408A60026080A128A11A226EE
:100FCA000A128A118312031307141A3083120313A5
:100FDA00A300F730A200A20BF02FA30BF02FF52FDE
:100FEA00831203130710422F0A128A110028830161
:060FFA000A128A11312FDA
:02400E00FA3F77
:00000001FF
