:020000040000FA
:060000000A128A11FC2F18
:100E8800831603138601831203138601F6010A30C1
:100E98007602031C502F512F522FF60176080A12A2
:100EA8008A116D270A128A110130F3007308F607B8
:100EB8000B30F5002630F4005D30F300F30B622FA1
:100EC800F40B622FF50B622F692F4B2F0A128A1130
:100ED8000028F200D32F8312031306148614061574
:100EE8008615061686160613FB2F831203130610A3
:100EF800861406158611061286120613FB2F831216
:100F0800031306148614061186150616861206178C
:100F1800FB2F831203130614861406158615061272
:100F280086120617FB2F8312031306108614061564
:100F38008611061286160617FB2F83120313061452
:100F4800861006158615061286160617FB2F8312BD
:100F58000313061486100615861506168616061738
:100F6800FB2F831203130614861406158611061226
:100F780086120613FB2F8312031306148614061514
:100F88008615061686160617FB2F831203130614FA
:100F9800861406158615061286160617FB2F720884
:100FA800F000F1017108003A0319DB2FFB2F7008DC
:100FB800003A03196F2F013A0319792F033A0319DD
:100FC800832F013A03198D2F073A0319972F013AF6
:100FD8000319A12F033A0319AB2F013A0319B52FAF
:100FE8000F3A0319BF2F013A0319C92FFB2F080025
:080FF80083010A128A11442F43
:02400E00FA3F77
:00000001FF
